{
  "contractName": "Election",
  "abi": [
    {
      "inputs": [],
      "stateMutability": "payable",
      "type": "constructor"
    },
    {
      "anonymous": false,
      "inputs": [
        {
          "indexed": true,
          "internalType": "uint256",
          "name": "_candidateId",
          "type": "uint256"
        }
      ],
      "name": "votedEvent",
      "type": "event"
    },
    {
      "inputs": [],
      "name": "CountOfCandidates",
      "outputs": [
        {
          "internalType": "uint256",
          "name": "",
          "type": "uint256"
        }
      ],
      "stateMutability": "view",
      "type": "function"
    },
    {
      "inputs": [
        {
          "internalType": "uint256",
          "name": "",
          "type": "uint256"
        }
      ],
      "name": "candidates",
      "outputs": [
        {
          "internalType": "uint256",
          "name": "id",
          "type": "uint256"
        },
        {
          "internalType": "string",
          "name": "name",
          "type": "string"
        },
        {
          "internalType": "uint256",
          "name": "Count_Of_Votes",
          "type": "uint256"
        }
      ],
      "stateMutability": "view",
      "type": "function"
    },
    {
      "inputs": [],
      "name": "owner",
      "outputs": [
        {
          "internalType": "address",
          "name": "",
          "type": "address"
        }
      ],
      "stateMutability": "view",
      "type": "function"
    },
    {
      "inputs": [
        {
          "internalType": "address",
          "name": "",
          "type": "address"
        }
      ],
      "name": "voters",
      "outputs": [
        {
          "internalType": "bool",
          "name": "",
          "type": "bool"
        }
      ],
      "stateMutability": "view",
      "type": "function"
    },
    {
      "inputs": [
        {
          "internalType": "string",
          "name": "_name",
          "type": "string"
        }
      ],
      "name": "NewCandidate",
      "outputs": [],
      "stateMutability": "nonpayable",
      "type": "function"
    },
    {
      "inputs": [
        {
          "internalType": "uint256",
          "name": "_candidateId",
          "type": "uint256"
        }
      ],
      "name": "vote",
      "outputs": [],
      "stateMutability": "nonpayable",
      "type": "function"
    }
  ],
  "bytecode": "0x6080604052336000806101000a81548173ffffffffffffffffffffffffffffffffffffffff021916908373ffffffffffffffffffffffffffffffffffffffff160217905550610b0d806100536000396000f3fe608060405234801561001057600080fd5b50600436106100625760003560e01c80630121b93f146100675780633477ee2e14610083578063608eda78146100b557806389684798146100d35780638da5cb5b146100ef578063a3ec138d1461010d575b600080fd5b610081600480360381019061007c9190610591565b61013d565b005b61009d60048036038101906100989190610591565b610298565b6040516100ac93929190610666565b60405180910390f35b6100bd61034a565b6040516100ca91906106a4565b60405180910390f35b6100ed60048036038101906100e891906107f4565b610350565b005b6100f7610460565b604051610104919061087e565b60405180910390f35b610127600480360381019061012291906108c5565b610484565b604051610134919061090d565b60405180910390f35b600160003373ffffffffffffffffffffffffffffffffffffffff1673ffffffffffffffffffffffffffffffffffffffff16815260200190815260200160002060009054906101000a900460ff16156101ca576040517f08c379a00000000000000000000000000000000000000000000000000000000081526004016101c190610974565b60405180910390fd5b6000811180156101dc57506003548111155b6101e557600080fd5b60018060003373ffffffffffffffffffffffffffffffffffffffff1673ffffffffffffffffffffffffffffffffffffffff16815260200190815260200160002060006101000a81548160ff021916908315150217905550600260008281526020019081526020016000206002016000815480929190610263906109c3565b9190505550807ffff3c900d938d21d0990d786e819f29b8d05c1ef587b462b939609625b684b1660405160405180910390a250565b60026020528060005260406000206000915090508060000154908060010180546102c190610a3a565b80601f01602080910402602001604051908101604052809291908181526020018280546102ed90610a3a565b801561033a5780601f1061030f5761010080835404028352916020019161033a565b820191906000526020600020905b81548152906001019060200180831161031d57829003601f168201915b5050505050908060020154905083565b60035481565b3373ffffffffffffffffffffffffffffffffffffffff1660008054906101000a900473ffffffffffffffffffffffffffffffffffffffff1673ffffffffffffffffffffffffffffffffffffffff16146103de576040517f08c379a00000000000000000000000000000000000000000000000000000000081526004016103d590610ab7565b60405180910390fd5b600360008154809291906103f1906109c3565b919050555060405180606001604052806003548152602001828152602001600081525060026000600354815260200190815260200160002060008201518160000155602082015181600101908051906020019061044f9291906104a4565b506040820151816002015590505050565b60008054906101000a900473ffffffffffffffffffffffffffffffffffffffff1681565b60016020528060005260406000206000915054906101000a900460ff1681565b8280546104b090610a3a565b90600052602060002090601f0160209004810192826104d25760008555610519565b82601f106104eb57805160ff1916838001178555610519565b82800160010185558215610519579182015b828111156105185782518255916020019190600101906104fd565b5b509050610526919061052a565b5090565b5b8082111561054357600081600090555060010161052b565b5090565b6000604051905090565b600080fd5b600080fd5b6000819050919050565b61056e8161055b565b811461057957600080fd5b50565b60008135905061058b81610565565b92915050565b6000602082840312156105a7576105a6610551565b5b60006105b58482850161057c565b91505092915050565b6105c78161055b565b82525050565b600081519050919050565b600082825260208201905092915050565b60005b838110156106075780820151818401526020810190506105ec565b83811115610616576000848401525b50505050565b6000601f19601f8301169050919050565b6000610638826105cd565b61064281856105d8565b93506106528185602086016105e9565b61065b8161061c565b840191505092915050565b600060608201905061067b60008301866105be565b818103602083015261068d818561062d565b905061069c60408301846105be565b949350505050565b60006020820190506106b960008301846105be565b92915050565b600080fd5b600080fd5b7f4e487b7100000000000000000000000000000000000000000000000000000000600052604160045260246000fd5b6107018261061c565b810181811067ffffffffffffffff821117156107205761071f6106c9565b5b80604052505050565b6000610733610547565b905061073f82826106f8565b919050565b600067ffffffffffffffff82111561075f5761075e6106c9565b5b6107688261061c565b9050602081019050919050565b82818337600083830152505050565b600061079761079284610744565b610729565b9050828152602081018484840111156107b3576107b26106c4565b5b6107be848285610775565b509392505050565b600082601f8301126107db576107da6106bf565b5b81356107eb848260208601610784565b91505092915050565b60006020828403121561080a57610809610551565b5b600082013567ffffffffffffffff81111561082857610827610556565b5b610834848285016107c6565b91505092915050565b600073ffffffffffffffffffffffffffffffffffffffff82169050919050565b60006108688261083d565b9050919050565b6108788161085d565b82525050565b6000602082019050610893600083018461086f565b92915050565b6108a28161085d565b81146108ad57600080fd5b50565b6000813590506108bf81610899565b92915050565b6000602082840312156108db576108da610551565b5b60006108e9848285016108b0565b91505092915050565b60008115159050919050565b610907816108f2565b82525050565b600060208201905061092260008301846108fe565b92915050565b7f796f75206861766520616c6c726561647920766f746564000000000000000000600082015250565b600061095e6017836105d8565b915061096982610928565b602082019050919050565b6000602082019050818103600083015261098d81610951565b9050919050565b7f4e487b7100000000000000000000000000000000000000000000000000000000600052601160045260246000fd5b60006109ce8261055b565b91507fffffffffffffffffffffffffffffffffffffffffffffffffffffffffffffffff8203610a00576109ff610994565b5b600182019050919050565b7f4e487b7100000000000000000000000000000000000000000000000000000000600052602260045260246000fd5b60006002820490506001821680610a5257607f821691505b602082108103610a6557610a64610a0b565b5b50919050565b7f4f6e6c79206f776e65722063616e2063616c6c20746869730000000000000000600082015250565b6000610aa16018836105d8565b9150610aac82610a6b565b602082019050919050565b60006020820190508181036000830152610ad081610a94565b905091905056fea2646970667358221220fa3530e5fd8df0d7f30fdc28976db1fa037ecc9381f9442306fa705acdf6be5964736f6c634300080d0033",
  "immutableReferences": {},
  "source": "// SPDX-License-Identifier: MIT\r\npragma solidity >=0.4.22 <0.9.0;\r\n\r\ncontract Election {\r\n\r\n    // Creatimg a candidates structure\r\n\r\n    address public owner;\r\n\r\n    struct Candidate {\r\n        uint id;\r\n        string name;\r\n        uint Count_Of_Votes;\r\n    }\r\n\r\n    modifier onlyOwner{\r\n        require(owner == msg.sender, \"Only owner can call this\");\r\n        _;\r\n    }\r\n\r\n    // We load and fetch the number of our voters through the use of mapping\r\n    mapping(address => bool) public voters;\r\n\r\n    mapping(uint => Candidate) public candidates;\r\n\r\n    // Storing Candidates Count\r\n    uint public CountOfCandidates;\r\n\r\n    // voted event\r\n    event votedEvent (\r\n        uint indexed _candidateId\r\n    );\r\n\r\n    constructor() public payable{\r\n        owner = msg.sender;\r\n    }\r\n\r\n    function NewCandidate (string memory _name) public onlyOwner{\r\n        CountOfCandidates ++;\r\n        candidates[CountOfCandidates] = Candidate(CountOfCandidates, _name, 0);\r\n    }\r\n\r\n    function vote(uint _candidateId) public {\r\n        // require that they haven't voted before\r\n        require(!voters[msg.sender], \"you have allready voted\");\r\n\r\n        // require a valid candidate\r\n        require(_candidateId > 0 && _candidateId <= CountOfCandidates);\r\n\r\n        // check if a voter has already voted\r\n        voters[msg.sender] = true;\r\n\r\n        // Update the total number of votes\r\n        candidates[_candidateId].Count_Of_Votes++;\r\n\r\n        // trigger voted event\r\n        emit votedEvent(_candidateId);\r\n    }\r\n}\r\n",
  "sourcePath": "C:\\Users\\FAIMAH\\Desktop\\Voting-system\\contracts\\Election.sol",
  "compiler": {
    "name": "solc",
    "version": "0.8.13+commit.abaa5c0e.Emscripten.clang"
  },
  "schemaVersion": "3.4.13",
  "updatedAt": "2023-05-31T16:17:53.960Z",
  "devdoc": {
    "kind": "dev",
    "methods": {},
    "version": 1
  },
  "userdoc": {
    "kind": "user",
    "methods": {},
    "version": 1
  }
}