{
  "contractName": "Election",
  "abi": [
    {
      "inputs": [],
      "payable": true,
      "stateMutability": "payable",
      "type": "constructor"
    },
    {
      "anonymous": false,
      "inputs": [
        {
          "indexed": true,
          "internalType": "uint256",
          "name": "_candidateId",
          "type": "uint256"
        }
      ],
      "name": "votedEvent",
      "type": "event"
    },
    {
      "constant": true,
      "inputs": [],
      "name": "CountOfCandidates",
      "outputs": [
        {
          "internalType": "uint256",
          "name": "",
          "type": "uint256"
        }
      ],
      "payable": false,
      "stateMutability": "view",
      "type": "function"
    },
    {
      "constant": true,
      "inputs": [
        {
          "internalType": "uint256",
          "name": "",
          "type": "uint256"
        }
      ],
      "name": "candidates",
      "outputs": [
        {
          "internalType": "uint256",
          "name": "id",
          "type": "uint256"
        },
        {
          "internalType": "string",
          "name": "name",
          "type": "string"
        },
        {
          "internalType": "uint256",
          "name": "Count_Of_Votes",
          "type": "uint256"
        }
      ],
      "payable": false,
      "stateMutability": "view",
      "type": "function"
    },
    {
      "constant": true,
      "inputs": [],
      "name": "owner",
      "outputs": [
        {
          "internalType": "address",
          "name": "",
          "type": "address"
        }
      ],
      "payable": false,
      "stateMutability": "view",
      "type": "function"
    },
    {
      "constant": true,
      "inputs": [
        {
          "internalType": "address",
          "name": "",
          "type": "address"
        }
      ],
      "name": "voters",
      "outputs": [
        {
          "internalType": "bool",
          "name": "",
          "type": "bool"
        }
      ],
      "payable": false,
      "stateMutability": "view",
      "type": "function"
    },
    {
      "constant": false,
      "inputs": [
        {
          "internalType": "string",
          "name": "_name",
          "type": "string"
        }
      ],
      "name": "NewCandidate",
      "outputs": [],
      "payable": false,
      "stateMutability": "nonpayable",
      "type": "function"
    },
    {
      "constant": false,
      "inputs": [
        {
          "internalType": "uint256",
          "name": "_candidateId",
          "type": "uint256"
        }
      ],
      "name": "vote",
      "outputs": [],
      "payable": false,
      "stateMutability": "nonpayable",
      "type": "function"
    }
  ],
  "bytecode": "0x6080604052600080546001600160a01b03191633179055610541806100256000396000f3fe608060405234801561001057600080fd5b50600436106100625760003560e01c80630121b93f146100675780633477ee2e14610086578063608eda781461012957806389684798146101435780638da5cb5b146101e9578063a3ec138d1461020d575b600080fd5b6100846004803603602081101561007d57600080fd5b5035610247565b005b6100a36004803603602081101561009c57600080fd5b50356102db565b6040518084815260200180602001838152602001828103825284818151815260200191508051906020019080838360005b838110156100ec5781810151838201526020016100d4565b50505050905090810190601f1680156101195780820380516001836020036101000a031916815260200191505b5094505050505060405180910390f35b610131610386565b60408051918252519081900360200190f35b6100846004803603602081101561015957600080fd5b81019060208101813564010000000081111561017457600080fd5b82018360208201111561018657600080fd5b803590602001918460018302840111640100000000831117156101a857600080fd5b91908080601f01602080910402602001604051908101604052809392919081815260200183838082843760009201919091525092955061038c945050505050565b6101f161044d565b604080516001600160a01b039092168252519081900360200190f35b6102336004803603602081101561022357600080fd5b50356001600160a01b031661045c565b604080519115158252519081900360200190f35b3360009081526001602052604090205460ff161561026457600080fd5b60008111801561027657506003548111155b61027f57600080fd5b336000908152600160208181526040808420805460ff19168417905584845260029182905280842090910180549092019091555182917ffff3c900d938d21d0990d786e819f29b8d05c1ef587b462b939609625b684b1691a250565b60026020818152600092835260409283902080546001808301805487519281161561010002600019011695909504601f81018590048502820185019096528581529094919390929091908301828280156103765780601f1061034b57610100808354040283529160200191610376565b820191906000526020600020905b81548152906001019060200180831161035957829003601f168201915b5050505050908060020154905083565b60035481565b6000546001600160a01b031633146103eb576040805162461bcd60e51b815260206004820152601860248201527f4f6e6c79206f776e65722063616e2063616c6c20746869730000000000000000604482015290519081900360640190fd5b600380546001908101918290556040805160608101825283815260208082018681526000838501819052958652600282529290942081518155915180519194929361043c9390850192910190610471565b506040820151816002015590505050565b6000546001600160a01b031681565b60016020526000908152604090205460ff1681565b828054600181600116156101000203166002900490600052602060002090601f016020900481019282601f106104b257805160ff19168380011785556104df565b828001600101855582156104df579182015b828111156104df5782518255916020019190600101906104c4565b506104eb9291506104ef565b5090565b61050991905b808211156104eb57600081556001016104f5565b9056fea265627a7a7231582065b0553137d2483809f9e313a2c0bab077515a24d631788d0e03bb149a2b7a0b64736f6c63430005100032",
  "source": "// SPDX-License-Identifier: MIT\r\npragma solidity >=0.4.22 <0.9.0;\r\n\r\ncontract Election {\r\n\r\n    // Creatimg a candidates structure\r\n\r\n    address public owner;\r\n\r\n    struct Candidate {\r\n        uint id;\r\n        string name;\r\n        uint Count_Of_Votes;\r\n    }\r\n\r\n    modifier onlyOwner{\r\n        require(owner == msg.sender, \"Only owner can call this\");\r\n        _;\r\n    }\r\n\r\n    // We load and fetch the number of our voters through the use of mapping\r\n    mapping(address => bool) public voters;\r\n\r\n    mapping(uint => Candidate) public candidates;\r\n\r\n    // Storing Candidates Count\r\n    uint public CountOfCandidates;\r\n\r\n    // voted event\r\n    event votedEvent (\r\n        uint indexed _candidateId\r\n    );\r\n\r\n    constructor() public payable{\r\n        owner = msg.sender;\r\n    }\r\n\r\n    function NewCandidate (string memory _name) public onlyOwner{\r\n        CountOfCandidates ++;\r\n        candidates[CountOfCandidates] = Candidate(CountOfCandidates, _name, 0);\r\n    }\r\n\r\n    function vote(uint _candidateId) public {\r\n        // require that they haven't voted before\r\n        require(!voters[msg.sender]);\r\n\r\n        // require a valid candidate\r\n        require(_candidateId > 0 && _candidateId <= CountOfCandidates);\r\n\r\n        // check if a voter has already voted\r\n        voters[msg.sender] = true;\r\n\r\n        // Update the total number of votes\r\n        candidates[_candidateId].Count_Of_Votes++;\r\n\r\n        // trigger voted event\r\n        emit votedEvent(_candidateId);\r\n    }\r\n}\r\n",
  "sourcePath": "C:\\Users\\Felabs\\Desktop\\vote_app\\contracts\\Election.sol",
  "compiler": {
    "name": "solc",
    "version": "0.5.16+commit.9c3226ce.Emscripten.clang"
  },
  "schemaVersion": "3.4.13",
  "updatedAt": "2023-05-24T14:19:59.477Z",
  "networkType": "ethereum",
  "devdoc": {
    "methods": {}
  },
  "userdoc": {
    "methods": {}
  }
}